:100000000C9430000C9472010C9472010C947201E7
:100010000C9472010C9472010C9472010C94720194
:100020000C9472010C9472010C9472010C94720184
:100030000C9472010C9472010C9472010C94720174
:100040000C944C010C9472010C9472010C9472018A
:100050000C947201006000760002F2007600778056
:1000600011241FBECFE5D4E0DEBFCDBFE4E5F0E054
:1000700040E017C0B591A59135912591059107FDF7
:100080000CC095918591EF01F92FE82F05900D9205
:10009000A217B307D9F7FE0104C01D92A217B30738
:1000A000E1F7E036F40731F70E945A000C945B0147
:0400B000F894FFCFF2
:1000B4008FEF84BB87B3837F87BB81B3806281BBAF
:1000C40088B3837F88BB82B38F7D82BB86B18F77F1
:1000D40086B980B7877F80BF88B1806188B98BE09B
:1000E40088B98FB58E7F8FBD8FB582608FBD8EB579
:1000F400877F8EBD8EB580618EBD8FB580688FBDC4
:100104008FB58F7B8FBD8EB5897F8EBD8EB5816097
:100114008EBD8FEF90E097BD86BD78940E94390123
:100124000E94660185E00E946A018DE690E00E94CB
:10013400230185E00E946E0180E690E00E94230185
:100144002FE58AEE90E0215080409040E1F700C016
:1001540000000E946601809176008823E1F30E94EA
:10016400660188EC90E09BBD8ABD1092760088B150
:06017400806188B9F0CFA4
:10017A00982F907F95BB95B39B7F95BB95B398605D
:10018A0095BBE9EFF0E03197F1F700C0000095B3B5
:10019A00977F95BBE3ECF9E03197F1F700C00000D7
:1001AA00F0E18F9FC001112485BB85B38B7F85BB8E
:1001BA0085B3886085BB89EF90E00197F1F700C0AD
:1001CA00000085B3877F85BBE3ECF9E03197F1F74F
:0601DA0000C000000895C2
:1001E000982F907F95BB95B39C6095BBE9EFF0E0AD
:1001F0003197F1F700C0000095B3977F95BB95B399
:100200009B7F95BBE3ECF9E03197F1F700C000006C
:10021000F0E18F9FC001112485BB85B38C6085BB45
:1002200089EF90E00197F1F700C0000085B3877F68
:1002300085BB85B38B7F85BBE3ECF9E03197F1F7A4
:0602400000C0000008955B
:100246000F931F93CF93DF938C01C0E0D0E003C0E0
:100256000E94F0002196F801EC0FFD1F80818111AC
:0C026600F7CFDF91CF911F910F91089509
:1002720082E00E94BD0088E20E94BD008CE00E94E4
:10028200BD0086E00E94BD0081E00E94BD0080E8C2
:060292000E94BD0008956A
:100298001F920F920FB60F9211248F9381E08093D3
:0E02A80076008F910F900FBE0F901F9018954B
:1002B600EC010E9477010E947601CE010E9478012E
:0602C600CE010E9474014C
:0802CC0081E00E94BD000895CD
:0802D40080680E94BD0008953E
:0802DC00806C0E94BD00089532
:0402E4000C94000076
:0402E8000E94580018
:0202EC00089573
:0202EE00089571
:0202F00008956F
:0D02F200434F4D50415241444F52203200C5
:0902FF00505241435449434100AF
:00000001FF
