:100000000C9430000C945E010C945E010C945E0123
:100010000C945E010C945E010C945E010C945E01E4
:100020000C945E010C945E010C945E010C945E01D4
:100030000C945E010C945E010C945E010C945E01C4
:100040000C9438010C945E010C945E010C945E01DA
:100050000C945E01006000810002CA008100828071
:1000600011241FBECFE5D4E0DEBFCDBFE4E5F0E054
:1000700040E017C0B591A59135912591059107FDF7
:100080000CC095918591EF01F92FE82F05900D9205
:10009000A217B307D9F7FE0104C01D92A217B30738
:1000A000E1F7E036F40731F70E945A000C9447015B
:0400B000F894FFCFF2
:1000B4008FEF84BB87B3837F87BB88B3837F88BB81
:1000C40086B18F7786B980B7877F80BF88B180611A
:1000D40088B98BE088B978940E9425010E94520166
:1000E40085E00E94560188E790E00E940F0185E0B8
:1000F4000E945A018DE690E00E940F012FE58AEEDE
:1001040090E0215080409040E1F700C000000E9440
:100114005201809181008823E1F30E94520180E022
:100124000E94560180E690E00E940F012FEF80E7C5
:1001340092E0215080409040E1F700C000000E940E
:0E01440052011092810088B1806188B9E2CF2B
:10015200982F907F95BB95B39B7F95BB95B3986085
:1001620095BBE9EFF0E03197F1F700C0000095B3DD
:10017200977F95BBE3ECF9E03197F1F700C00000FF
:10018200F0E18F9FC001112485BB85B38B7F85BBB6
:1001920085B3886085BB89EF90E00197F1F700C0D5
:1001A200000085B3877F85BBE3ECF9E03197F1F777
:0601B20000C000000895EA
:1001B800982F907F95BB95B39C6095BBE9EFF0E0D5
:1001C8003197F1F700C0000095B3977F95BB95B3C1
:1001D8009B7F95BBE3ECF9E03197F1F700C0000095
:1001E800F0E18F9FC001112485BB85B38C6085BB6E
:1001F80089EF90E00197F1F700C0000085B3877F91
:1002080085BB85B38B7F85BBE3ECF9E03197F1F7CC
:0602180000C00000089583
:10021E000F931F93CF93DF938C01C0E0D0E003C008
:10022E000E94DC002196F801EC0FFD1F80818111E8
:0C023E00F7CFDF91CF911F910F91089531
:10024A0082E00E94A90088E20E94A9008CE00E9434
:10025A00A90086E00E94A90081E00E94A90080E826
:06026A000E94A9000895A6
:100270001F920F920FB60F9211248F9381E08093FB
:0E02800081008F910F900FBE0F901F90189568
:10028E00EC010E9463010E946201CE010E94640192
:06029E00CE010E94600188
:0802A40081E00E94A900089509
:0802AC0080680E94A90008957A
:0802B400806C0E94A90008956E
:0402BC000C9400009E
:0402C0000E94580040
:0202C40008959B
:0202C600089599
:0202C800089597
:0D02CA00494E54455252555043494F4E0085
:0B02D700434F4D50415241444F520034
:0902E200505241435449434100CC
:00000001FF
