:100000000C9430000C947D010C947D010C947D01C6
:100010000C947D010C947D010C947D010C947D0168
:100020000C947D010C947D010C947D010C947D0158
:100030000C947D010C947D010C947D010C947D0148
:100040000C9457010C947D010C947D010C947D015E
:100050000C947D0100600076000308007600778034
:1000600011241FBECFE5D4E0DEBFCDBFE4E5F0E054
:1000700040E017C0B591A59135912591059107FDF7
:100080000CC095918591EF01F92FE82F05900D9205
:10009000A217B307D9F7FE0104C01D92A217B30738
:1000A000E1F7E036F40731F70E945A000C9466013C
:0400B000F894FFCFF2
:1000B4008FEF84BB87B3837F87BB81B3806281BBAF
:1000C40088B3837F88BB82B38F7D82BB86B18F77F1
:1000D40086B980B7877F80BF88B1806188B98BE09B
:1000E40088B98FB58E7F8FBD8FB582608FBD8EB579
:1000F400877F8EBD8EB580618EBD8FB580688FBDC4
:100104008FB58F7B8FBD8EB5897F8EBD8EB5816097
:100114008EBD8FEF90E097BD86BD78940E94440118
:100124000E94710185E00E9475018DE690E00E94B5
:100134002E0185E00E94790180E690E00E942E0164
:100144002FE58AEE90E0215080409040E1F700C016
:1001540000000E947101809176008823E1F30E94DF
:10016400710188EC90E09BBD8ABD2FE382E49FE09F
:10017400215080409040E1F700C000001BBC1ABC35
:0C0184001092760088B1806188B9E5CF48
:10019000982F907F95BB95B39B7F95BB95B3986047
:1001A00095BBE9EFF0E03197F1F700C0000095B39F
:1001B000977F95BBE3ECF9E03197F1F700C00000C1
:1001C000F0E18F9FC001112485BB85B38B7F85BB78
:1001D00085B3886085BB89EF90E00197F1F700C097
:1001E000000085B3877F85BBE3ECF9E03197F1F739
:0601F00000C000000895AC
:1001F600982F907F95BB95B39C6095BBE9EFF0E097
:100206003197F1F700C0000095B3977F95BB95B382
:100216009B7F95BBE3ECF9E03197F1F700C0000056
:10022600F0E18F9FC001112485BB85B38C6085BB2F
:1002360089EF90E00197F1F700C0000085B3877F52
:1002460085BB85B38B7F85BBE3ECF9E03197F1F78E
:0602560000C00000089545
:10025C000F931F93CF93DF938C01C0E0D0E003C0CA
:10026C000E94FB002196F801EC0FFD1F808181118B
:0C027C00F7CFDF91CF911F910F910895F3
:1002880082E00E94C80088E20E94C8008CE00E94B8
:10029800C80086E00E94C80081E00E94C80080E88B
:0602A8000E94C800089549
:1002AE001F920F920FB60F9211248F9381E08093BD
:0E02BE0076008F910F900FBE0F901F90189535
:1002CC00EC010E9482010E948101CE010E948301F7
:0602DC00CE010E947F012B
:0802E20081E00E94C8000895AC
:0802EA0080680E94C80008951D
:0802F200806C0E94C800089511
:0402FA000C94000060
:0402FE000E94580002
:0203020008955C
:0203040008955A
:02030600089558
:0D030800434F4D50415241444F52203200AE
:0903150050524143544943410098
:00000001FF
