:100000000C9430000C94C8010C94C8010C94C801E5
:100010000C94C8010C94C8010C94C8010C94C8013C
:100020000C94C8010C94E6000C94C8010C94C8010F
:100030000C94C8010C94C8010C94C8010C94C8011C
:100040000C94C8010C94C8010C94C8010C94C8010C
:100050000C94C8010060006900039E0069006F8075
:1000600011241FBECFE5D4E0DEBFCDBFE4E5F0E054
:1000700040E017C0B591A59135912591059107FDF7
:100080000CC095918591EF01F92FE82F05900D9205
:10009000A217B307D9F7FE0104C01D92A217B30738
:1000A000E1F7E036F40731F70E945A000C94B501ED
:0400B000F894FFCFF2
:1000B4008FEF84BB0E94A2010E94C00180E00E94D5
:1000C400C40180E690E00E948C0113BE83B7856072
:1000D40083BF89B7816089BF88B7816088BF7894FE
:1000E40080916B008823E1F310926B0080916E0085
:1000F4008F5F80936E0080916E008C33C0F01092FD
:100104006E0080916D008F5F80936D0080916D0013
:100114008C3368F010926D0080916C008F5F809337
:100124006C0080916C00883110F010926C0010917A
:100134006E0000916D00F0906C0080E00E94C4019C
:10014400CDECFC9ED12D1124D695D695D69580E381
:100154008D0F0E945901DD0F8D2F880F880FD80F46
:100164008F2D8D1B805D0E9459018AE30E945901E5
:100174000C9FD12D1124D695D695D69580E38D0F5D
:100184000E945901DD0F8D2F880F880FD80F802F03
:100194008D1B805D0E9459018AE30E9459011C9FB6
:1001A400C12D1124C695C695C69580E38C0F0E9477
:1001B4005901CC0F8C2F880F880FC80F812F8C1BEF
:0801C400805D0E9459018CCFFF
:1001CC001F920F920FB60F9211248F939F938091D1
:1001DC006A00813051F028F0823059F0833001F1FF
:1001EC0026C081E080936A0024C082E080936A007C
:1001FC0020C080916900823010F49FE201C090E32E
:10020C00809169008F5F80936900809169008330D1
:10021C0010F01092690092BF83E080936A0009C0CD
:10022C0081E080936B0012BE10926A0002C01092A3
:10023C006A009F918F910F900FBE0F901F90189591
:10024C00982F907F95BB95B39B7F95BB95B398608A
:10025C0095BBE9EFF0E03197F1F700C0000095B3E2
:10026C00977F95BBE3ECF9E03197F1F700C0000004
:10027C00F0E18F9FC001112485BB85B38B7F85BBBB
:10028C0085B3886085BB89EF90E00197F1F700C0DA
:10029C00000085B3877F85BBE3ECF9E03197F1F77C
:0602AC0000C000000895EF
:1002B200982F907F95BB95B39C6095BBE9EFF0E0DA
:1002C2003197F1F700C0000095B3977F95BB95B3C6
:1002D2009B7F95BBE3ECF9E03197F1F700C000009A
:1002E200F0E18F9FC001112485BB85B38C6085BB73
:1002F20089EF90E00197F1F700C0000085B3877F96
:1003020085BB85B38B7F85BBE3ECF9E03197F1F7D1
:0603120000C00000089588
:100318000F931F93CF93DF938C01C0E0D0E003C00D
:100328000E9459012196F801EC0FFD1F808181116F
:0C033800F7CFDF91CF911F910F91089536
:1003440082E00E94260188E20E9426018CE00E943D
:10035400260186E00E94260181E00E94260180E8B1
:060364000E94260108952D
:10036A00EC010E94CD010E94CC01CE010E94CE0177
:06037A00CE010E94CA0141
:0803800081E00E9426010895AE
:0803880080680E94260108951F
:040390000C940000C9
:040394000E9458006B
:020398000895C6
:02039A000895C4
:02039C000895C2
:09039E0030303A30303A303000C2
:00000001FF
