:100000000C942D000C9474000C9474000C947400E7
:100010000C9474000C9474000C9474000C94740090
:100020000C9474000C9474000C9474000C94740080
:100030000C9474000C9474000C9474000C94740070
:100040000C9474000C9474000C9474000C94740060
:100050000C94740000600062800011241FBECFE584
:10006000D4E0DEBFCDBFE4E5F0E040E017C0B591DD
:10007000A59135912591059107FD0CC0959185912C
:10008000EF01F92FE82F05900D92A217B307D9F7CA
:10009000FE0104C01D92A217B307E1F7E935F4078A
:0E00A00031F70E9457000C946900F894FFCFCE
:1000AE001ABA8FEF87BB84BB89B3282F30E0309309
:1000BE00610020936000807F88BB809160008F700C
:0400CE0085BBF2CF2D
:1000D200EC010E9479000E947800CE010E947A0011
:0600E200CE010E94760031
:0400E8000C94000074
:0400EC000E94550019
:0200F000089571
:0200F20008956F
:0200F40008956D
:00000001FF
