:100000000C942A000C9486000C9486000C948600B4
:100010000C9486000C9486000C9486000C94860048
:100020000C9486000C9454000C9486000C9486006A
:100030000C9486000C9486000C9486000C94860028
:100040000C9486000C9486000C9486000C94860018
:100050000C94860011241FBECFE5D4E0DEBFCDBFD7
:10006000E4E5F0E040E017C0B591A5913591259108
:10007000059107FD0CC095918591EF01F92FE82FAF
:1000800005900D92A217B307D9F7FE0104C01D9287
:10009000A217B307E1F7E435F40731F70E946800CF
:0800A0000C947B00F894FFCFE3
:1000A8001F920F920FB60F9211248F939F9398B3BC
:1000B80080E2892788BB81EB82BF9F918F910F9047
:0800C8000FBE0F901F90189568
:1000D00087B3806287BB88B38F7D88BB81EB82BF8B
:1000E00088B7816088BF89B7816089BF83B7856021
:0600F00083BF7894FFCFEE
:1000F600EC010E948B000E948A00CE010E948C00B7
:06010600CE010E948800FA
:04010C000C9400004F
:040110000E945200F7
:0201140008954C
:0201160008954A
:02011800089548
:00000001FF
