:100000000C942E000C94B2090C94B2090C94B20911
:100010000C94B2090C94B2090C94B2090C94B20974
:100020000C94B2090C94B2090C94B2090C94B20964
:100030000C94B2090C94B2090C94B2090C94B20954
:100040000C94B2090C94B2090C94B2090C94B20944
:100050000C94B2090060007F0013720011241FBECF
:10006000CFE5D4E0DEBFCDBFE4E5F0E040E017C06F
:10007000B591A59135912591059107FD0CC09591FC
:100080008591EF01F92FE82F05900D92A217B30784
:10009000D9F7FE0104C01D92A217B307E1F7EB35B3
:1000A000F40731F70E9458000C949B09F894FFCF95
:1000B0008FEF84BB0E9488090E94A60980E00E94FD
:1000C000AA0981E790E00E94720980E00E94AE09CF
:1000D00080E690E00E9472098FE493EC0197F1F7BB
:1000E00000C000000E947C060E94CE060E942007ED
:1000F0000E9472070E94C4070E9416080E946808A6
:100100000E94BA080E94A60980E00E94AA0983E022
:100110000E943F099FE926E881E0915020408040FD
:10012000E1F700C0000080E00E94AE0983E00E9479
:100130003F099FE926E881E0915020408040E1F7A7
:1001400000C000008FE00E94AA0985E00E943F09DC
:100150009FE926E881E0915020408040E1F700C00F
:1001600000008FE00E94AA0980E20E943F0983EC10
:1001700099E00197F1F700C000008EE00E94AA0903
:1001800085E00E943F099FE926E881E091502040E8
:100190008040E1F700C000008EE00E94AA0980E2E2
:1001A0000E943F0983EC99E00197F1F700C000003D
:1001B0008DE00E94AA0985E00E943F099FE926E898
:1001C00081E0915020408040E1F700C0000081E0D4
:1001D0000E94AA0980E00E943F098DE00E94AA09BE
:1001E00080E20E943F0983EC99E00197F1F700C09B
:1001F00000008CE00E94AA0985E00E943F099FE967
:1002000026E881E0915020408040E1F700C00000E6
:1002100082E00E94AA0984E00E943F098CE00E94CB
:10022000AA0980E20E943F0983EC99E00197F1F767
:1002300000C000008BE00E94AA0985E00E943F09EF
:100240009FE926E881E0915020408040E1F700C01E
:10025000000082E00E94AA0980E20E943F0983EC2C
:1002600099E00197F1F700C0000083E00E94AA091D
:1002700084E00E943F098BE00E94AA0980E20E946C
:100280003F0983EC99E00197F1F700C000008AE094
:100290000E94AA0985E00E943F099FE926E881E0C3
:1002A000915020408040E1F700C0000083E00E94B0
:1002B000AA0980E20E943F0983EC99E00197F1F7D7
:1002C00000C0000084E00E94AA0984E00E943F0967
:1002D0008AE00E94AA0980E20E943F0983EC99E02B
:1002E0000197F1F700C000008FE00E94AE0987E09F
:1002F0000E943F0989E00E94AA0985E00E943F0907
:100300009FE926E881E0915020408040E1F700C05D
:10031000000084E00E94AA0980E20E943F0983EC69
:1003200099E00197F1F700C0000085E00E94AA095A
:1003300084E00E943F0989E00E94AA0980E20E94AD
:100340003F0983EC99E00197F1F700C000008FE0CE
:100350000E94AE0980E20E943F0983EC99E0019778
:10036000F1F700C0000088E00E94AA0985E00E9421
:100370003F098EE00E94AE0987E00E943F099FE995
:1003800026E881E0915020408040E1F700C0000065
:1003900081E00E94AE0980E00E943F0988E00E944F
:1003A000AA0980E20E943F0983EC99E00197F1F7E6
:1003B00000C0000087E00E94AA0985E00E943F0972
:1003C00085E00E94AA0980E20E943F0983EC99E03F
:1003D0000197F1F700C0000086E00E94AA0984E0BE
:1003E0000E943F098EE00E94AE0980E20E943F0910
:1003F00083EC99E00197F1F700C000008DE00E94C6
:10040000AE0987E00E943F099FE926E881E091500C
:1004100020408040E1F700C0000086E00E94AA0969
:1004200082E00E943F0987E00E94AA0980E20E94C0
:100430003F0983EC99E00197F1F700C0000082E0EA
:100440000E94AE0984E00E943F098DE00E94AE093F
:1004500080E20E943F0983EC99E00197F1F700C028
:1004600000008CE00E94AE0987E00E943F099FE9EE
:1004700026E881E0915020408040E1F700C0000074
:1004800086E00E94AA0980E20E943F0982E00E9461
:10049000AE0980E20E943F0983EC99E00197F1F7F1
:1004A00000C0000083E00E94AE0984E00E943F0982
:1004B0008CE00E94AE0980E20E943F0983EC99E043
:1004C0000197F1F700C000008BE00E94AE0987E0C1
:1004D0000E943F099FE926E881E09150204080403A
:1004E000E1F700C0000088E00E94AE0986E00E94AB
:1004F0003F098BE00E94AE0980E20E943F0983EC35
:1005000099E00197F1F700C000008AE00E94AE096F
:1005100087E00E943F0983E00E94AE0980E20E94CA
:100520003F0983EC99E00197F1F700C0000084E0F7
:100530000E94AE0984E00E943F099FE926E881E01D
:10054000915020408040E1F700C000008EE00E9402
:10055000AE0981E00E943F098AE00E94AE0980E274
:100560000E943F0983EC99E00197F1F700C0000079
:1005700089E00E94AE0987E00E943F0984E00E9462
:10058000AE0980E20E943F0983EC99E00197F1F700
:1005900000C0000085E00E94AE0984E00E943F098F
:1005A0009FE926E881E0915020408040E1F700C0BB
:1005B00000008EE00E94AA0981E00E943F0985E0C8
:1005C0000E94AE0980E20E943F0983EC99E0019706
:1005D000F1F700C0000086E00E94AE0984E00E94AE
:1005E0003F0989E00E94AE0980E20E943F0983EC46
:1005F00099E00197F1F700C0000088E00E94AE0981
:1006000087E00E943F098EE00E94AE0980E20E94CE
:100610003F0983EC99E00197F1F700C000008DE0FD
:100620000E94AE0981E00E943F099FE926E881E02F
:10063000915020408040E1F700C0000082E00E941D
:10064000AE0980E00E943F0986E00E94AE0980E288
:100650000E943F0983EC99E00197F1F700C0000088
:1006600087E00E94AE0984E00E943F0988E00E9472
:10067000AE0980E20E943F0983EC99E00197F1F70F
:1006800000C0000087E00E94AE0985E00E943F099B
:100690008DE00E94AE0980E20E943F0983EC99E060
:1006A0000197F1F700C000008CE00E94AE0981E0E4
:1006B0000E943F098EE00E94AA0980E20E943F0941
:1006C00083EC99E00197F1F700C000008DE00E94F3
:1006D000AA0981E00E943F099FE926E881E0915044
:1006E00020408040E1F700C0000083E00E94AE0996
:1006F00084E00E943F0987E00E94AE0980E20E94E8
:100700003F0983EC99E00197F1F700C0000086E013
:100710000E94AE0985E00E943F098CE00E94AE096C
:1007200080E20E943F0983EC99E00197F1F700C055
:1007300000008BE00E94AE0981E00E943F098DE03D
:100740000E94AA0980E20E943F0983EC99E0019788
:10075000F1F700C000008CE00E94AA0981E00E942D
:100760003F099FE926E881E0915020408040E1F771
:1007700000C0000084E00E94AE0984E00E943F09AE
:1007800086E00E94AE0980E20E943F0983EC99E076
:100790000197F1F700C0000085E00E94AE0985E0F6
:1007A0000E943F098BE00E94AE0980E20E943F094F
:1007B00083EC99E00197F1F700C000008AE00E9405
:1007C000AE0981E00E943F098CE00E94AA0980E204
:1007D0000E943F0983EC99E00197F1F700C0000007
:1007E0008BE00E94AA0981E00E943F099FE926E868
:1007F00081E0915020408040E1F700C0000083E09C
:100800000E94AA0980E20E943F0983EC99E00197C7
:10081000F1F700C0000085E00E94AE0980E20E946E
:100820003F0983EC99E00197F1F700C0000084E0F4
:100830000E94AE0982E00E943F098AE00E94AE0950
:1008400080E20E943F0983EC99E00197F1F700C034
:10085000000089E00E94AE0981E00E943F098BE020
:100860000E94AA0980E20E943F0983EC99E0019767
:10087000F1F700C000008AE00E94AA0981E00E940E
:100880003F099FE926E881E0915020408040E1F750
:1008900000C0000084E00E94AE0980E20E943F098F
:1008A00083EC99E00197F1F700C0000083E00E941B
:1008B000AE0980E20E943F0983EC99E00197F1F7CD
:1008C00000C0000084E00E94AE0984E00E943F095D
:1008D00082E00E94AA0984E00E943F0989E00E9408
:1008E000AE0980E20E943F0983EC99E00197F1F79D
:1008F00000C0000088E00E94AE0981E00E943F092C
:100900008AE00E94AA0980E20E943F0983EC99E0F4
:100910000197F1F700C0000089E00E94AA0981E078
:100920000E943F099FE926E881E0915020408040E5
:10093000E1F700C0000084E00E94AE0980E20E945E
:100940003F0983EC99E00197F1F700C0000085E0D2
:100950000E94AE0984E00E943F0982E00E94AA0939
:1009600080E20E943F0983EC99E00197F1F700C013
:10097000000083E00E94AA0984E00E943F0983E00E
:100980000E94AE0984E00E943F0988E00E94AE09FF
:1009900080E20E943F0983EC99E00197F1F700C0E3
:1009A000000087E00E94AE0981E00E943F0989E0D3
:1009B0000E94AA0980E20E943F0983EC99E0019716
:1009C000F1F700C0000088E00E94AA0981E00E94BF
:1009D0003F099FE926E881E0915020408040E1F7FF
:1009E00000C0000085E00E94AE0980E20E943F093D
:1009F00083EC99E00197F1F700C0000087E00E94C6
:100A0000AE0980E20E943F0983EC99E00197F1F77B
:100A100000C0000086E00E94AE0987E00E943F0906
:100A200083E00E94AA0980E20E943F0983EC99E0DA
:100A30000197F1F700C0000084E00E94AA0984E059
:100A40000E943F0983E00E94AE0980E20E943F09B4
:100A500083EC99E00197F1F700C0000084E00E9468
:100A6000AE0984E00E943F0988E00E94AA0980E262
:100A70000E943F0983EC99E00197F1F700C0000064
:100A800087E00E94AA0981E00E943F099FE926E8C9
:100A900081E0915020408040E1F700C0000086E0F6
:100AA0000E94AE0980E20E943F0983EC99E0019721
:100AB000F1F700C0000084E00E94AE0980E20E94CD
:100AC0003F0983EC99E00197F1F700C0000085E051
:100AD0000E94AE0985E00E943F0984E00E94AA09B5
:100AE00080E20E943F0983EC99E00197F1F700C092
:100AF000000085E00E94AA0984E00E943F0987E087
:100B00000E94AA0980E20E943F0983EC99E00197C4
:100B1000F1F700C0000086E00E94AA0981E00E946F
:100B20003F099FE926E881E0915020408040E1F7AD
:100B300000C0000083E00E94AE0984E00E943F09EB
:100B400085E00E94AE0980E20E943F0983EC99E0B3
:100B50000197F1F700C0000084E00E94AE0985E033
:100B60000E943F0986E00E94AA0980E20E943F0994
:100B700083EC99E00197F1F700C0000085E00E9446
:100B8000AA0987E00E943F099FE926E881E0915089
:100B900020408040E1F700C0000084E00E94AE09E0
:100BA00080E20E943F0983EC99E00197F1F700C0D1
:100BB000000083E00E94AE0982E00E943F0986E0C7
:100BC0000E94AA0980E20E943F0983EC99E0019704
:100BD000F1F700C0000085E00E94AA0987E00E94AA
:100BE0003F099FE926E881E0915020408040E1F7ED
:100BF00000C0000082E00E94AA0984E00E943F0930
:100C000083E00E94AE0980E20E943F0983EC99E0F4
:100C10000197F1F700C0000085E00E94AA0980E278
:100C20000E943F0983EC99E00197F1F700C00000B2
:100C300084E00E94AA0987E00E943F0983E00E94A5
:100C4000AE0980E20E943F0983EC99E00197F1F739
:100C500000C0000084E00E94AA0987E00E943F09CA
:100C60009FE926E881E0915020408040E1F700C0F4
:100C7000000082E00E94AA0980E20E943F0983EC02
:100C800099E00197F1F700C0000084E00E94AA09F2
:100C900080E20E943F0983EC99E00197F1F700C0E0
:100CA000000083E00E94AA0980E20E943F0983ECD1
:100CB00099E00197F1F700C0000082E00E94AA09C4
:100CC00082E00E943F099FE926E881E091502040A0
:100CD0008040E1F700C0000082E00E94AA0980E0A5
:100CE0000E943F099FE72AE186E091502040804022
:080CF000E1F700C0000006CA94
:100CF80080E40E940C0989EF90E00197F1F700C0A9
:100D0800000084E00E943F0989EF90E00197F1F725
:100D180000C000008EE00E943F0989EF90E0019733
:100D2800F1F700C000008AE00E943F0989EF90E0D7
:100D38000197F1F700C000008BE00E943F0989EF9E
:100D480090E00197F1F700C000008FE00E943F0992
:100D580089EF90E00197F1F700C0000084E00E945D
:100D68003F0989EF90E00197F1F700C0000086E0A5
:100D78000E943F0989EF90E00197F1F700C0000059
:100D880081E00E943F0989EF90E00197F1F700C0E8
:040D980000000895BA
:100D9C0088E40E940C0989EF90E00197F1F700C0FC
:100DAC0000008EE00E943F0989EF90E00197F1F777
:100DBC0000C000008EE00E943F0989EF90E001978F
:100DCC00F1F700C000008EE00E943F0989EF90E02F
:100DDC000197F1F700C000008EE00E943F0989EFF7
:100DEC0090E00197F1F700C0000084E00E943F09F9
:100DFC0089EF90E00197F1F700C000008CE10E94B0
:100E0C003F0989EF90E00197F1F700C0000084E002
:100E1C000E943F0989EF90E00197F1F700C00000B4
:100E2C0084E00E943F0989EF90E00197F1F700C040
:040E3C000000089515
:100E400080E50E940C0989EF90E00197F1F700C05E
:100E5000000082E00E943F0989EF90E00197F1F7DE
:100E600000C0000087E00E943F0989EF90E00197F1
:100E7000F1F700C0000085E00E943F0989EF90E093
:100E80000197F1F700C000008FE10E943F0989EF50
:100E900090E00197F1F700C000008AE10E943F094D
:100EA00089EF90E00197F1F700C000008EE00E940A
:100EB0003F0989EF90E00197F1F700C0000082E060
:100EC0000E943F0989EF90E00197F1F700C0000010
:100ED00082E00E943F0989EF90E00197F1F700C09E
:040EE0000000089571
:100EE40088E50E940C0989EF90E00197F1F700C0B2
:100EF400000081E10E943F0989EF90E00197F1F73A
:100F040000C000008AE00E943F0989EF90E0019749
:100F1400F1F700C0000084E00E943F0989EF90E0EF
:100F24000197F1F700C000008AE00E943F0989EFB1
:100F340090E00197F1F700C0000085E10E943F09AD
:100F440089EF90E00197F1F700C0000084E00E946F
:100F54003F0989EF90E00197F1F700C0000084E0B9
:100F64000E943F0989EF90E00197F1F700C000006B
:100F740084E00E943F0989EF90E00197F1F700C0F7
:040F840000000895CC
:100F880080E60E940C0989EF90E00197F1F700C014
:100F9800000080E00E943F0989EF90E00197F1F797
:100FA80000C0000080E00E943F0989EF90E00197AF
:100FB800F1F700C0000080E00E943F0989EF90E04F
:100FC8000197F1F700C000008CE00E943F0989EF0B
:100FD80090E00197F1F700C000008CE00E943F0903
:100FE80089EF90E00197F1F700C0000080E00E94CF
:100FF8003F0989EF90E00197F1F700C0000080E019
:101008000E943F0989EF90E00197F1F700C00000C6
:1010180080E00E943F0989EF90E00197F1F700C056
:041028000000089527
:10102C0088E60E940C0989EF90E00197F1F700C067
:10103C00000082E00E943F0989EF90E00197F1F7F0
:10104C0000C0000087E00E943F0989EF90E0019703
:10105C00F1F700C0000085E00E943F0989EF90E0A5
:10106C000197F1F700C0000087E00E943F0989EF6B
:10107C0090E00197F1F700C0000082E00E943F0968
:10108C0089EF90E00197F1F700C000008EE00E941C
:10109C003F0989EF90E00197F1F700C0000082E072
:1010AC000E943F0989EF90E00197F1F700C0000022
:1010BC0082E00E943F0989EF90E00197F1F700C0B0
:0410CC000000089583
:1010D00080E70E940C0989EF90E00197F1F700C0CA
:1010E000000084E00E943F0989EF90E00197F1F74A
:1010F00000C000008EE00E943F0989EF90E0019758
:10110000F1F700C000008FE10E943F0989EF90E0F5
:101110000197F1F700C0000085E10E943F0989EFC7
:1011200090E00197F1F700C000008FE10E943F09B5
:1011300089EF90E00197F1F700C000008FE10E9475
:101140003F0989EF90E00197F1F700C000008EE0C1
:101150000E943F0989EF90E00197F1F700C000007D
:1011600084E00E943F0989EF90E00197F1F700C009
:0411700000000895DE
:1011740088E70E940C0989EF90E00197F1F700C01D
:10118400000082E00E943F0989EF90E00197F1F7A7
:1011940000C0000085E00E943F0989EF90E00197BC
:1011A400F1F700C0000087E10E943F0989EF90E059
:1011B4000197F1F700C0000087E10E943F0989EF21
:1011C40090E00197F1F700C000008EE10E943F0912
:1011D40089EF90E00197F1F700C0000082E00E94DF
:1011E4003F0989EF90E00197F1F700C0000082E029
:1011F4000E943F0989EF90E00197F1F700C00000D9
:1012040082E00E943F0989EF90E00197F1F700C066
:041214000000089539
:10121800982F907F95BB95B39B7F95BB95B39860AE
:1012280095BBE9EFF0E03197F1F700C0000095B306
:10123800977F95BBE3ECF9E03197F1F700C0000028
:10124800F0E18F9FC001112485BB85B38B7F85BBDF
:1012580085B3886085BB89EF90E00197F1F700C0FE
:10126800000085B3877F85BBE3ECF9E03197F1F7A0
:0612780000C00000089513
:10127E00982F907F95BB95B39C6095BBE9EFF0E0FE
:10128E003197F1F700C0000095B3977F95BB95B3EA
:10129E009B7F95BBE3ECF9E03197F1F700C00000BE
:1012AE00F0E18F9FC001112485BB85B38C6085BB97
:1012BE0089EF90E00197F1F700C0000085B3877FBA
:1012CE0085BB85B38B7F85BBE3ECF9E03197F1F7F6
:0612DE0000C000000895AD
:1012E4000F931F93CF93DF938C01C0E0D0E003C032
:1012F4000E943F092196F801EC0FFD1F80818111A6
:0C130400F7CFDF91CF911F910F9108955A
:1013100082E00E940C0988E20E940C098EE00E9483
:101320000C0986E00E940C0981E00E940C0980E80B
:061330000E940C09089563
:10133600EC010E94B7090E94B609CE010E94B809C5
:06134600CE010E94B40973
:08134C0081E00E940C090895E4
:0813540080680E940C09089555
:08135C00806C0E940C09089549
:041364000C940000E5
:041368000E94560089
:02136C000895E2
:02136E000895E0
:021370000895DE
:10137200506C616E7461735653205A6F6D6269735B
:01138200006A
:0E1383004269656E76656E69646F2C206100AC
:00000001FF
