:100000000C942E000C9414050C9414050C941405F7
:100010000C9414050C9414050C9414050C941405FC
:100020000C9414050C9414050C9414050C941405EC
:100030000C9414050C9414050C9414050C941405DC
:100040000C9414050C9414050C9414050C941405CC
:100050000C9414050060007F000A360011241FBEB6
:10006000CFE5D4E0DEBFCDBFE4E5F0E040E017C06F
:10007000B591A59135912591059107FD0CC09591FC
:100080008591EF01F92FE82F05900D92A217B30784
:10009000D9F7FE0104C01D92A217B307E1F7EB35B3
:1000A000F40731F70E9458000C94FD04F894FFCF38
:1000B0008FEF84BB0E94EA040E94080580E00E9442
:1000C0000C0581E790E00E94D40480E00E941005B6
:1000D00080E690E00E94D4048FE493EC0197F1F75E
:1000E00000C000000E94DE010E9430020E948202D5
:1000F0000E94D4020E9426030E9478030E94CA0331
:100100000E941C040E94080580E00E940C0583E008
:100110000E94A1049FE926E881E0915020408040A0
:10012000E1F700C0000080E00E94100583E00E941B
:10013000A1049FE926E881E0915020408040E1F74A
:1001400000C000008FE00E940C0585E00E94A10421
:100150009FE926E881E0915020408040E1F700C00F
:1001600000008FE00E940C0580E20E94A10483EC55
:1001700099E00197F1F700C000008EE00E940C05A5
:1001800085E00E94A1049FE926E881E0915020408B
:100190008040E1F700C000008EE00E940C0580E284
:1001A0000E94A10483EC99E00197F1F700C00000E0
:1001B0008DE00E940C0585E00E94A1049FE926E8DD
:1001C00081E0915020408040E1F700C0000081E0D4
:1001D0000E940C0580E00E94A1048DE00E940C05A5
:1001E00080E20E94A10483EC99E00197F1F700C03E
:1001F00000008CE00E940C0585E00E94A1049FE9AC
:1002000026E881E0915020408040E1F700C00000E6
:1002100082E00E940C0584E00E94A1048CE00E9410
:100220000C0580E20E94A10483EC99E00197F1F7AC
:1002300000C000008BE00E940C0585E00E94A10434
:100240009FE926E881E0915020408040E1F700C01E
:10025000000083E00E940C0584E00E94A1048BE072
:100260000E940C0580E20E94A10483EC99E00197B2
:10027000F1F700C000008AE00E940C0585E00E94B2
:10028000A1049FE926E881E0915020408040E1F7F9
:1002900000C0000084E00E940C0584E00E94A104DC
:1002A0008AE00E940C0580E20E94A10483EC99E0A0
:1002B0000197F1F700C000008FE00E94100587E071
:1002C0000E94A10489E00E940C0585E00E94A1041F
:1002D0009FE926E881E0915020408040E1F700C08E
:1002E000000085E00E940C0584E00E94A10489E0E2
:1002F0000E940C0580E20E94A10483EC99E0019722
:10030000F1F700C000008FE00E94100580E20E941B
:10031000A10483EC99E00197F1F700C0000088E0A8
:100320000E940C0585E00E94A1048EE00E94100549
:1003300087E00E94A1049FE926E881E091502040D7
:100340008040E1F700C0000081E00E94100580E0DD
:100350000E94A10488E00E940C0580E20E94A10492
:1003600083EC99E00197F1F700C0000087E00E945C
:100370000C0585E00E94A10486E00E940C0584E043
:100380000E94A1048EE00E94100580E20E94A10458
:1003900083EC99E00197F1F700C000008DE00E9426
:1003A000100587E00E94A1049FE926E881E09150B2
:0C03B00020408040E1F700C00000A4CE17
:1003BC0080E40E946E0489EF90E00197F1F700C091
:1003CC00000084E00E94A10489EF90E00197F1F70E
:1003DC0000C000008EE00E94A10489EF90E001971C
:1003EC00F1F700C000008AE00E94A10489EF90E0C0
:1003FC000197F1F700C000008BE00E94A10489EF87
:10040C0090E00197F1F700C000008FE00E94A1047A
:10041C0089EF90E00197F1F700C0000084E00E94A2
:10042C00A10489EF90E00197F1F700C0000086E08D
:10043C000E94A10489EF90E00197F1F700C0000041
:10044C0081E00E94A10489EF90E00197F1F700C0D0
:04045C0000000895FF
:1004600088E40E946E0489EF90E00197F1F700C0E4
:1004700000008EE00E94A10489EF90E00197F1F75F
:1004800000C000008EE00E94A10489EF90E0019777
:10049000F1F700C000008EE00E94A10489EF90E017
:1004A0000197F1F700C000008EE00E94A10489EFDF
:1004B00090E00197F1F700C0000084E00E94A104E1
:1004C00089EF90E00197F1F700C000008CE10E94F5
:1004D000A10489EF90E00197F1F700C0000084E0EB
:1004E0000E94A10489EF90E00197F1F700C000009D
:1004F00084E00E94A10489EF90E00197F1F700C029
:04050000000008955A
:1005040080E50E946E0489EF90E00197F1F700C046
:10051400000084E00E94A10489EF90E00197F1F7C4
:1005240000C000008EE00E94A10489EF90E00197D2
:10053400F1F700C000008FE00E94A10489EF90E071
:100544000197F1F700C0000088E10E94A10489EF3F
:1005540090E00197F1F700C000008FE00E94A10431
:1005640089EF90E00197F1F700C000008FE00E944E
:10057400A10489EF90E00197F1F700C000008CE03E
:100584000E94A10489EF90E00197F1F700C00000F8
:1005940083E00E94A10489EF90E00197F1F700C085
:0405A40000000895B6
:1005A80088E50E946E0489EF90E00197F1F700C09A
:1005B800000080E00E94A10489EF90E00197F1F724
:1005C80000C0000080E00E94A10489EF90E001973C
:1005D800F1F700C0000080E00E94A10489EF90E0DC
:1005E8000197F1F700C0000084E10E94A10489EF9F
:1005F80090E00197F1F700C0000088E00E94A10494
:1006080089EF90E00197F1F700C0000084E10E94B3
:10061800A10489EF90E00197F1F700C0000087E09E
:100628000E94A10489EF90E00197F1F700C0000053
:1006380083E00E94A10489EF90E00197F1F700C0E0
:040648000000089511
:10064C0080E60E946E0489EF90E00197F1F700C0FC
:10065C00000080E00E94A10489EF90E00197F1F77F
:10066C0000C0000080E00E94A10489EF90E0019797
:10067C00F1F700C0000080E00E94A10489EF90E037
:10068C000197F1F700C000008CE00E94A10489EFF3
:10069C0090E00197F1F700C000008CE00E94A104EB
:1006AC0089EF90E00197F1F700C0000080E00E9414
:1006BC00A10489EF90E00197F1F700C0000080E001
:1006CC000E94A10489EF90E00197F1F700C00000AF
:1006DC0080E00E94A10489EF90E00197F1F700C03F
:0406EC00000008956D
:1006F00088E60E946E0489EF90E00197F1F700C050
:10070000000082E00E94A10489EF90E00197F1F7D8
:1007100000C0000087E00E94A10489EF90E00197EB
:10072000F1F700C0000085E00E94A10489EF90E08D
:100730000197F1F700C0000087E00E94A10489EF53
:1007400090E00197F1F700C0000082E00E94A10450
:1007500089EF90E00197F1F700C000008EE00E9461
:10076000A10489EF90E00197F1F700C0000082E05A
:100770000E94A10489EF90E00197F1F700C000000A
:1007800082E00E94A10489EF90E00197F1F700C098
:0407900000000895C8
:1007940080E70E946E0489EF90E00197F1F700C0B2
:1007A400000084E00E94A10489EF90E00197F1F732
:1007B40000C000008EE00E94A10489EF90E0019740
:1007C400F1F700C000008FE10E94A10489EF90E0DE
:1007D4000197F1F700C0000085E10E94A10489EFB0
:1007E40090E00197F1F700C000008FE10E94A1049E
:1007F40089EF90E00197F1F700C000008FE10E94BB
:10080400A10489EF90E00197F1F700C000008EE0A9
:100814000E94A10489EF90E00197F1F700C0000065
:1008240084E00E94A10489EF90E00197F1F700C0F1
:040834000000089523
:1008380088E70E946E0489EF90E00197F1F700C005
:10084800000082E00E94A10489EF90E00197F1F78F
:1008580000C0000085E00E94A10489EF90E00197A4
:10086800F1F700C0000087E10E94A10489EF90E041
:100878000197F1F700C0000087E10E94A10489EF09
:1008880090E00197F1F700C000008EE10E94A104FA
:1008980089EF90E00197F1F700C0000082E00E9424
:1008A800A10489EF90E00197F1F700C0000082E011
:1008B8000E94A10489EF90E00197F1F700C00000C1
:1008C80082E00E94A10489EF90E00197F1F700C04F
:0408D800000008957F
:1008DC00982F907F95BB95B39B7F95BB95B39860F4
:1008EC0095BBE9EFF0E03197F1F700C0000095B34C
:1008FC00977F95BBE3ECF9E03197F1F700C000006E
:10090C00F0E18F9FC001112485BB85B38B7F85BB24
:10091C0085B3886085BB89EF90E00197F1F700C043
:10092C00000085B3877F85BBE3ECF9E03197F1F7E5
:06093C0000C00000089558
:10094200982F907F95BB95B39C6095BBE9EFF0E043
:100952003197F1F700C0000095B3977F95BB95B32F
:100962009B7F95BBE3ECF9E03197F1F700C0000003
:10097200F0E18F9FC001112485BB85B38C6085BBDC
:1009820089EF90E00197F1F700C0000085B3877FFF
:1009920085BB85B38B7F85BBE3ECF9E03197F1F73B
:0609A20000C000000895F2
:1009A8000F931F93CF93DF938C01C0E0D0E003C077
:1009B8000E94A1042196F801EC0FFD1F808181118E
:0C09C800F7CFDF91CF911F910F910895A0
:1009D40082E00E946E0488E20E946E048EE00E940F
:1009E4006E0486E00E946E0481E00E946E0480E83A
:0609F4000E946E0408954C
:1009FA00EC010E9419050E941805CE010E941A05F1
:060A0A00CE010E9416055A
:080A100081E00E946E040895CC
:080A180080680E946E0408953D
:080A2000806C0E946E04089531
:040A28000C9400002A
:040A2C000E945600CE
:020A3000089527
:020A3200089525
:020A3400089523
:100A3600506C616E6173207673205A6F6D626973B4
:010A460000AF
:0E0A47004269656E76656E69646F2C206100F1
:00000001FF
