:100000000C942A000C9487000C9487000C948700B1
:100010000C9487000C9487000C9487000C94870044
:100020000C9487000C9487000C9487000C94870034
:100030000C9487000C9487000C9487000C94870024
:100040000C9487000C9487000C9487000C947D001E
:100050000C94870011241FBECFE5D4E0DEBFCDBFD6
:0C0060000E9436000C947200F894FFCF50
:10006C0087B3886087BB88B3877F88BB8AB38E7F52
:10007C008ABB8AB38D7F8ABB12BE8DE38CBF8AE1AB
:10008C0083BF99B3492F417091FB222720F930E0AF
:10009C00C901880F991F842B823049F0833061F09D
:1000AC00813079F48AE183BF8DE38CBF0EC089E186
:1000BC0083BF81E38CBF09C089E183BF84E08CBF1F
:1000CC0004C08AE183BF8DE38CBF87E893E101977D
:0800DC00F1F700C00000D5CFD0
:1000E400EC010E948C000E948B00CE010E948D00C6
:0600F400CE010E9489000C
:1000FA001F920F920FB60F9211240F900FBE0F90FE
:04010A001F90189595
:04010E000C9400004D
:040112000E94340013
:0201160008954A
:02011800089548
:02011A00089546
:00000001FF
