:100000000C942A000C9488000C9488000C948800AE
:100010000C9488000C9488000C9488000C94880040
:100020000C9488000C9488000C9488000C94880030
:100030000C9488000C9488000C9488000C94880020
:100040000C9488000C9488000C9488000C947E001A
:100050000C94880011241FBECFE5D4E0DEBFCDBFD5
:0C0060000E9436000C947300F894FFCF4F
:10006C0087B3886087BB88B3877F88BB8AB38E7F52
:10007C008ABB8AB38D7F8ABB12BE8DE38CBF8BE1AA
:10008C0083BF9FEFC99B02C080E001C082E0C89B88
:10009C008F5F8917D9F0823049F0833061F081305D
:1000AC0079F49BE193BF9DE39CBF0EC09AE193BF93
:1000BC0091E39CBF09C09AE193BF94E09CBF04C03C
:1000CC009BE193BF9DE39CBF12BE982FEFE3FCE92D
:0A00DC003197F1F700C00000D5CF06
:1000E600EC010E948D000E948C00CE010E948E00C1
:0600F600CE010E948A0009
:1000FC001F920F920FB60F9211240F900FBE0F90FC
:04010C001F90189593
:040110000C9400004B
:040114000E94340011
:02011800089548
:02011A00089546
:02011C00089544
:00000001FF
