:100000000C9442000C94C3040C94C3040C94C304D9
:100010000C94C3040C94C3040C94C3040C94C30444
:100020000C94C3040C94C3040C94C3040C94C30434
:100030000C94C3040C94C3040C94C3040C94C30424
:100040000C94C3040C94C3040C94C3040C94C30414
:100050000C94C304C000C400C800CC00D000D4007D
:10006000D800DC00E800E800E800E800E800E8006C
:10007000E800E800E800E800E800E0000060007444
:100080000009940011241FBECFE5D4E0DEBFCDBF30
:10009000ECE7F0E040E017C0B591A59135912591CE
:1000A000059107FD0CC095918591EF01F92FE82F7F
:1000B00005900D92A217B307D9F7FE0104C01D9257
:1000C000A217B307E1F7E338F40731F70E946C0099
:0800D0000C94A604F894FFCF84
:1000D8008FEF84BB80EF81BB8FEE82BB0E949304BD
:1000E8000E94B70480E00E94BB0480E690E00E9472
:1000F800690480E00E94BF048BE690E00E946904D6
:100108002FEF80E792E0215080409040E1F700C057
:1001180000000E94B7040E9473010E94C5010E945A
:1001280017020E9469020E94BB020E940D030E94EE
:100138005F030E94B103D0E00E94F100C82F803213
:1001480009F448C080E00E94BB04D1110AC0C13440
:1001580021F40E94B704D1E037C08C2F0E943604E6
:1001680033C08C2F90E0FC01F197E431F10560F584
:10017800E65DFF4F0C94B10480E00E94360424C071
:1001880081E00E94360420C082E00E9436041CC030
:1001980083E00E94360418C084E00E94360414C02C
:1001A80085E00E94360410C086E00E9436040CC028
:1001B80087E00E94360408C00E94B70480E00E94CD
:1001C800BB040E94B704D0E08FE19EE40197F1F7E9
:0A01D80000C000000E947F04AFCFBA
:1001E20082B38F3B09F444C020F48F3709F45CC01A
:1001F20076C08F3D01F18F3E09F071C080B38F70E0
:100202008B3089F018F4873091F069C08D3039F065
:100212008E3009F064C081E38093730060C082E392
:10022200809373005CC083E38093730058C081E4C1
:100232008093730054C080B38F708B3089F018F4B0
:10024200873091F04CC08D3039F08E3009F047C0C4
:1002520084E38093730043C085E3809373003FC0BF
:1002620086E3809373003BC082E48093730037C0BF
:1002720080B38F708B3081F018F4873089F02FC0F3
:100282008D3031F08E3059F587E38093730027C0AB
:1002920088E38093730023C089E3809373001FC0B7
:1002A20083E4809373001BC080B38F708B3081F026
:1002B20018F4873089F013C08D3031F08E3079F424
:1002C2008AE2809373000BC080E38093730007C0BF
:1002D20083E28093730003C084E48093730080916F
:0402E2007300089508
:1002E60080E40E94030489EF90E00197F1F700C0D3
:1002F600000084E00E94360489EF90E00197F1F750
:1003060000C000008EE00E94360489EF90E001975D
:10031600F1F700C000008AE00E94360489EF90E001
:100326000197F1F700C000008BE00E94360489EFC8
:1003360090E00197F1F700C000008FE00E943604BC
:1003460089EF90E00197F1F700C0000084E00E9479
:10035600360489EF90E00197F1F700C0000086E0CF
:100366000E94360489EF90E00197F1F700C0000083
:1003760081E00E94360489EF90E00197F1F700C012
:0403860000000895D6
:10038A0088E40E94030489EF90E00197F1F700C026
:10039A0000008EE00E94360489EF90E00197F1F7A1
:1003AA0000C000008EE00E94360489EF90E00197B9
:1003BA00F1F700C000008EE00E94360489EF90E059
:1003CA000197F1F700C000008EE00E94360489EF21
:1003DA0090E00197F1F700C0000084E00E94360423
:1003EA0089EF90E00197F1F700C000008CE10E94CC
:1003FA00360489EF90E00197F1F700C0000084E02D
:10040A000E94360489EF90E00197F1F700C00000DE
:10041A0084E00E94360489EF90E00197F1F700C06A
:04042A000000089531
:10042E0080E50E94030489EF90E00197F1F700C088
:10043E00000082E00E94360489EF90E00197F1F708
:10044E0000C0000087E00E94360489EF90E001971B
:10045E00F1F700C0000085E00E94360489EF90E0BD
:10046E000197F1F700C000008FE10E94360489EF7A
:10047E0090E00197F1F700C000008AE10E94360477
:10048E0089EF90E00197F1F700C000008EE00E9426
:10049E00360489EF90E00197F1F700C0000082E08A
:1004AE000E94360489EF90E00197F1F700C000003A
:1004BE0082E00E94360489EF90E00197F1F700C0C8
:0404CE00000008958D
:1004D20088E50E94030489EF90E00197F1F700C0DC
:1004E200000081E10E94360489EF90E00197F1F764
:1004F20000C000008AE00E94360489EF90E0019774
:10050200F1F700C0000084E00E94360489EF90E019
:100512000197F1F700C000008AE00E94360489EFDB
:1005220090E00197F1F700C0000085E10E943604D7
:1005320089EF90E00197F1F700C0000084E00E948B
:10054200360489EF90E00197F1F700C0000084E0E3
:100552000E94360489EF90E00197F1F700C0000095
:1005620084E00E94360489EF90E00197F1F700C021
:0405720000000895E8
:1005760080E60E94030489EF90E00197F1F700C03E
:10058600000080E00E94360489EF90E00197F1F7C1
:1005960000C0000080E00E94360489EF90E00197D9
:1005A600F1F700C0000080E00E94360489EF90E079
:1005B6000197F1F700C000008CE00E94360489EF35
:1005C60090E00197F1F700C000008CE00E9436042D
:1005D60089EF90E00197F1F700C0000080E00E94EB
:1005E600360489EF90E00197F1F700C0000080E043
:1005F6000E94360489EF90E00197F1F700C00000F1
:1006060080E00E94360489EF90E00197F1F700C080
:040616000000089543
:10061A0088E60E94030489EF90E00197F1F700C091
:10062A00000082E00E94360489EF90E00197F1F71A
:10063A0000C0000087E00E94360489EF90E001972D
:10064A00F1F700C0000085E00E94360489EF90E0CF
:10065A000197F1F700C0000087E00E94360489EF95
:10066A0090E00197F1F700C0000082E00E94360492
:10067A0089EF90E00197F1F700C000008EE00E9438
:10068A00360489EF90E00197F1F700C0000082E09C
:10069A000E94360489EF90E00197F1F700C000004C
:1006AA0082E00E94360489EF90E00197F1F700C0DA
:0406BA00000008959F
:1006BE0080E70E94030489EF90E00197F1F700C0F4
:1006CE00000084E00E94360489EF90E00197F1F774
:1006DE0000C000008EE00E94360489EF90E0019782
:1006EE00F1F700C000008FE10E94360489EF90E020
:1006FE000197F1F700C0000085E10E94360489EFF2
:10070E0090E00197F1F700C000008FE10E943604DF
:10071E0089EF90E00197F1F700C000008FE10E9491
:10072E00360489EF90E00197F1F700C000008EE0EB
:10073E000E94360489EF90E00197F1F700C00000A7
:10074E0084E00E94360489EF90E00197F1F700C033
:04075E0000000895FA
:1007620088E70E94030489EF90E00197F1F700C047
:10077200000082E00E94360489EF90E00197F1F7D1
:1007820000C0000085E00E94360489EF90E00197E6
:10079200F1F700C0000087E10E94360489EF90E083
:1007A2000197F1F700C0000087E10E94360489EF4B
:1007B20090E00197F1F700C000008EE10E9436043C
:1007C20089EF90E00197F1F700C0000082E00E94FB
:1007D200360489EF90E00197F1F700C0000082E053
:1007E2000E94360489EF90E00197F1F700C0000003
:1007F20082E00E94360489EF90E00197F1F700C091
:040802000000089555
:10080600982F907F95BB95B39B7F95BB95B39860CA
:1008160095BBE9EFF0E03197F1F700C0000095B322
:10082600977F95BBE3ECF9E03197F1F700C0000044
:10083600F0E18F9FC001112485BB85B38B7F85BBFB
:1008460085B3886085BB89EF90E00197F1F700C01A
:10085600000085B3877F85BBE3ECF9E03197F1F7BC
:0608660000C0000008952F
:10086C00982F907F95BB95B39C6095BBE9EFF0E01A
:10087C003197F1F700C0000095B3977F95BB95B306
:10088C009B7F95BBE3ECF9E03197F1F700C00000DA
:10089C00F0E18F9FC001112485BB85B38C6085BBB3
:1008AC0089EF90E00197F1F700C0000085B3877FD6
:1008BC0085BB85B38B7F85BBE3ECF9E03197F1F712
:0608CC0000C000000895C9
:1008D2000F931F93CF93DF938C01C0E0D0E003C04E
:1008E2000E9436042196F801EC0FFD1F80818111D0
:0C08F200F7CFDF91CF911F910F91089577
:1008FE0082B38F3D41F08F3E19F08F3B51F406C00D
:10090E008FED82BB08958FEB82BB08958FE782BB7C
:08091E0008958FEE82BB0895DD
:1009260082E00E94030488E20E9403048CE00E9495
:10093600030486E00E94030481E00E94030480E829
:060946000E940304089565
:10094C00EC010E94C8040E94C704CE010E94C90495
:06095C00CE010E94C5045B
:0C096200EE0FFF1F0590F491E02D0994AA
:08096E0081E00E9403040895DA
:0809760080680E94030408954B
:08097E00806C0E94030408953F
:040986000C940000CD
:04098A000E946A005D
:02098E000895CA
:020990000895C8
:020992000895C6
:0B0994005072616374696361203300DE
:08099F005465636C61646F0094
:0109A700202F
:00000001FF
