:100000000C942E000C94CE010C94CE010C94CE01D5
:100010000C94CE010C94CE010C94CE010C94CE0124
:100020000C94CE010C94CE010C94CE010C94CE0114
:100030000C94CE010C94CE010C94CE010C94CE0104
:100040000C94CE010C94CE010C94CE010C94CE01F4
:100050000C94CE01006000740003AA0011241FBE9E
:10006000CFE5D4E0DEBFCDBFE4E5F0E040E017C06F
:10007000B591A59135912591059107FD0CC09591FC
:100080008591EF01F92FE82F05900D92A217B30784
:10009000D9F7FE0104C01D92A217B307E1F7EB35B3
:1000A000F40731F70E94DA000C94B701F894FFCFFF
:1000B00082B38F3B09F444C020F48F3709F45CC04D
:1000C00076C08F3D01F18F3E09F071C080B38F7013
:1000D0008B3089F018F4873091F069C08D3039F099
:1000E0008E3009F064C081E38093730060C082E3C6
:1000F000809373005CC083E38093730058C081E4F5
:100100008093730054C080B38F708B3089F018F4E3
:10011000873091F04CC08D3039F08E3009F047C0F7
:1001200084E38093730043C085E3809373003FC0F2
:1001300086E3809373003BC082E48093730037C0F2
:1001400080B38F708B3081F018F4873089F02FC026
:100150008D3031F08E3059F587E38093730027C0DE
:1001600088E38093730023C089E3809373001FC0EA
:1001700083E4809373001BC080B38F708B3081F059
:1001800018F4873089F013C08D3031F08E3079F457
:100190008AE2809373000BC080E38093730007C0F2
:1001A00083E28093730003C084E4809373008091A2
:0401B000730008953B
:1001B4008FEF84BB80EF81BB0E94A4010E94C20127
:1001C40080E00E94C60180E690E00E947A0180E00F
:1001D4000E94CA018BE690E00E947A012FEF80E72B
:1001E40092E0215080409040E1F700C000000E945E
:1001F400C2010E945800803261F00E9447010E94AF
:1002040058008032E1F787EA91E60197F1F700C0E0
:1002140000000E94900181EE94E00197F1F700C084
:040224000000E7CF20
:10022800982F907F95BB95B39B7F95BB95B39860AE
:1002380095BBE9EFF0E03197F1F700C0000095B306
:10024800977F95BBE3ECF9E03197F1F700C0000028
:10025800F0E18F9FC001112485BB85B38B7F85BBDF
:1002680085B3886085BB89EF90E00197F1F700C0FE
:10027800000085B3877F85BBE3ECF9E03197F1F7A0
:0602880000C00000089513
:10028E00982F907F95BB95B39C6095BBE9EFF0E0FE
:10029E003197F1F700C0000095B3977F95BB95B3EA
:1002AE009B7F95BBE3ECF9E03197F1F700C00000BE
:1002BE00F0E18F9FC001112485BB85B38C6085BB97
:1002CE0089EF90E00197F1F700C0000085B3877FBA
:1002DE0085BB85B38B7F85BBE3ECF9E03197F1F7F6
:0602EE0000C000000895AD
:1002F4000F931F93CF93DF938C01C0E0D0E003C032
:100304000E9447012196F801EC0FFD1F80818111A5
:0C031400F7CFDF91CF911F910F9108955A
:1003200082B38F3D41F08F3E19F08F3B51F406C0F0
:100330008FED82BB08958FEB82BB08958FE782BB60
:0803400008958FEE82BB0895C1
:1003480082E00E94140188E20E9414018EE00E945B
:10035800140186E00E94140181E00E94140180E8E3
:060368000E94140108953B
:10036E00EC010E94D3010E94D201CE010E94D40161
:06037E00CE010E94D00137
:0803840081E00E9414010895BC
:08038C0080680E94140108952D
:08039400806C0E941401089521
:04039C000C940000BD
:0403A0000E94560061
:0203A4000895BA
:0203A6000895B8
:0203A8000895B6
:0B03AA005072616374696361203300CE
:0803B5005465636C61646F0084
:0103BD00201F
:00000001FF
