:100000000C942E000C9486000C9486000C948600B0
:100010000C9486000C9486000C9486000C94860048
:100020000C9486000C9486000C9486000C94860038
:100030000C9486000C9486000C9486000C94860028
:100040000C9486000C9486000C9486000C94860018
:100050000C9486000060006400011A0011241FBE89
:10006000CFE5D4E0DEBFCDBFE4E5F0E040E017C06F
:10007000B591A59135912591059107FD0CC09591FC
:100080008591EF01F92FE82F05900D92A217B30784
:10009000D9F7FE0104C01D92A217B307E1F7EB35B3
:1000A000F40731F70E9458000C947B00F894FFCFBE
:1000B0001ABA8FEF87BB84BBE2E6F0E0808188BB91
:1000C000A0E6B0E08C9185BB2FE986E891E0215055
:1000D00080409040E1F700C000008C9188BB808197
:1000E00085BB2FE986E891E0215080409040E1F700
:0600F00000C00000E1CF9A
:1000F600EC010E948B000E948A00CE010E948C00B7
:06010600CE010E948800FA
:04010C000C9400004F
:040110000E945600F3
:0201140008954C
:0201160008954A
:02011800089548
:02011A0055008E
:02011C00AA0037
:00000001FF
