:100000000C942E000C9477000C9477000C947700DD
:100010000C9477000C9477000C9477000C94770084
:100020000C9477000C9477000C9477000C94770074
:100030000C9477000C9477000C9477000C94770064
:100040000C9477000C9477000C9477000C94770054
:100050000C947700006000640000FC0011241FBEB7
:10006000CFE5D4E0DEBFCDBFE4E5F0E040E017C06F
:10007000B591A59135912591059107FD0CC09591FC
:100080008591EF01F92FE82F05900D92A217B30784
:10009000D9F7FE0104C01D92A217B307E1F7EB35B3
:1000A000F40731F70E9458000C946C00F894FFCFCD
:1000B0001ABA8FEF87BB84BB8091620088BB8091A6
:1000C000600085BB2FE986E891E021508040904098
:0800D000E1F700C00000F0CFD1
:1000D800EC010E947C000E947B00CE010E947D0002
:0600E800CE010E94790028
:0400EE000C9400006E
:0400F2000E94560012
:0200F60008956B
:0200F800089569
:0200FA00089567
:0200FC005500AD
:0200FE00AA0056
:00000001FF
